:020000040002F8
:1060000090A50020956402009D640200B562020024
:10601000A1640200A3640200A56402000000000065
:1060200000000000000000000000000015620200F7
:10603000A96402000000000059620200AD64020081
:1060400099750200AF640200857B020001780200AE
:10605000AF640200AF640200816A02005976020058
:10606000AF640200AF640200AF640200AF640200DC
:10607000AF640200AF640200AF640200AF640200CC
:10608000917B0200F1750200AF640200AF64020070
:10609000AF640200AF64020011780200AF64020036
:1060A000AF640200AF640200AF640200AF6402009C
:1060B000AF640200AF6402000000000000000000B6
:1060C000AF640200AF640200AF640200AF6402007C
:1060D000AF640200AF640200AF6402000000000081
:1060E00000000000000000000000000000000000B0
:1060F00000000000000000000000000000000000A0
:10610000000000000000000000000000000000008F
:10611000000000000000000000000000000000007F
:10612000000000000000000000000000000000006F
:10613000000000000000000000000000000000005F
:10614000000000000000000000000000000000004F
:10615000000000000000000000000000000000003F
:10616000000000000000000000000000000000002F
:10617000000000000000000000000000000000001F
:10618000000000000000000000000000000000000F
:1061900000000000000000000000000000000000FF
:1061A00000000000000000000000000000000000EF
:1061B00000000000000000000000000000000000DF
:1061C00000000000000000000000000000000000CF
:1061D00000000000000000000000000000000000BF
:1061E00000000000000000000000000000000000AF
:1061F000000000000000000000000000000000009F
:10620000DFF80CD000F0CAFA0048004749D302007A
:1062100090A50020264B19680868B0E8F04F80F37D
:106220000988BFF36F8F4FF0000080F3118870472B
:10623000000000000748006880F3088862B661B675
:10624000BFF34F8FBFF36F8F4FF4F07080F311885F
:1062500000DF000000600200EFF30980BFF36F8FE2
:10626000134B1A681EF0100F08BF20ED108A20E9AA
:10627000F04F106008B44FF0400080F31188BFF376
:106280004F8FBFF36F8F10F075FC4FF0000080F35D
:10629000118808BC19680868B0E8F04F1EF0100FAC
:1062A00008BFB0EC108A80F30988BFF36F8F704786
:1062B000642C0020094B1EF0040F1CBFEFF3098073
:1062C0001847EFF308800649064A884201D89042F1
:1062D00002D88D464FF00000184700001D6C0200E8
:1062E00090A50020909D002030B450E8012F93B27B
:1062F000C48923448489A34228BF1B1B0489A34269
:1063000002BFBFF32F8F002007E0C3EA020340E87B
:106310000134002CE9D14FF001000A6030BC704715
:1063200050E8012FC2EA024240E801210029F7D1DA
:10633000704730B450E8022F1FFAA2F3C488A3427A
:1063400002BFBFF32F8F00200DE0C489234484894E
:10635000A34228BF1B1BC2EA034340E80234002CBF
:10636000E8D14FF001000A6030BC704750E8022FBE
:10637000C2EA224240E802210029F7D170470346D1
:1063800053E8022FD988B2EB324F4FF0000017BF0D
:1063900092B241EA014142EA014104E05A68B2EB9B
:1063A000324F08BF012043E80212002AE8D17047AB
:1063B00030B4044654E8000F0D4644E80053002B67
:1063C000F8D1156030BC704730B4044654E8000F73
:1063D00040EA010544E80053002BF7D1156030BCBA
:1063E000704730B4044654E8000F00EA010544E861
:1063F0000053002BF7D1156030BC704730B4044611
:1064000054E8000F80EA010544E80053002BF7D15F
:10641000156030BC704730B4044654E8000F00EB00
:10642000010544E80053002BF7D1156030BC7047DC
:1064300030B4044654E8000FA0EB010544E80053D3
:10644000002BF7D1156030BC704770B404464FF094
:10645000000054E8006F0D68AE4207BF44E8002317
:10646000012044E800630E60002B1CBF0020F0E711
:1064700070BC704730B4044654E8000F88422CBF0B
:10648000451A054644E80053002BF5D1156030BC91
:10649000704700000648804706480047FEE7FEE7D1
:1064A000FEE7FEE7FEE7FEE7FEE7FEE7FEE7FEE7C4
:1064B0006978020001620200202A04DB203A00FA17
:1064C00002F1002070479140C2F1200320FA03F34B
:1064D0001943904070470000004870470081030056
:1064E00040EA01039B0703D009E008C9121F08C056
:1064F000042AFAD203E011F8013B00F8013B521ED6
:10650000F9D27047D2B201E000F8012B491EFBD24C
:1065100070470022F6E710B513460A4604461946AE
:10652000FFF7F0FF204610BD421E12F8013F002B7E
:10653000FBD111F8013B02F8013B002BF9D1704768
:1065400030B505462A460B4612F8010B13F8014BED
:1065500008B1A042F8D01CB1002802D06D1CF1E7B0
:10656000284630BD10B5044604E00B7800F8013B26
:1065700003B1491C521EF8D2204610BDCAB2401EBB
:1065800010F8011F8A4202D00029F9D1002070477B
:10659000421C10F8011B0029FBD1801A704730B54E
:1065A00004460020034600E05B1C934203D2E05CFB
:1065B000CD5C401BF8D030BD034611F8012B00F82C
:1065C000012B002AF9D118467047000070B50F4D15
:1065D00000B92868002412E00A4602E09E4203D077
:1065E000521C1378002BF9D1DAB2224305D02BB11B
:1065F00024B1002100F8011B04E00446401C067889
:10660000002EE9D12860204670BD00006C2E0020CD
:106610002DE9F04791460F4680460446002614F8BF
:10662000015B2DB1FFF758FF0068405DC007F6D150
:106630002B2D02D02D2D18D0641E4A4639462046F7
:1066400000F05CF827B13968A14201D1C7F8008099
:1066500071054FF002040BD54042002803DD01F024
:1066600057FB0460A007BDE8F08746F48066E4E7C6
:106670000028F8DA01F04CFB04606FF00040F2E70C
:1066800070B5064601F044FB046805460A22002165
:106690003046FFF7BDFF2C6070BD2DE9F05F054669
:1066A000002092469B4688460646814640241BE0D1
:1066B000284641464746224600F082F853465A464D
:1066C000C01A914110D3114618462246FFF7F4FE36
:1066D0002D1A67EB01084F46224601200021FFF7E3
:1066E000EBFE17EB00094E41201EA4F10104DFDC94
:1066F000484631462A464346BDE8F09F2DE9F05F03
:1067000082460078002715468B460AF10104B946F7
:10671000302801D09DB113E014F8010B012778282F
:1067200003D0582801D045B10AE00DB1102D07D192
:106730000027102514F8010B02E0082500E00A25C7
:106740000026B0460EE005FB080005FB06F1012718
:1067500001EB10461FFA80F8B6F5803F00D3B9462A
:1067600014F8010B294600F03BF80028EBDABBF1E6
:10677000000F05D00FB1641E00E05446CBF8004076
:10678000B9F1000F06D001F0C3FA02210160C81E62
:10679000BDE8F09F48EA0640FAE70000064C074DC6
:1067A00006E0E06840F0010394E8070098471034E1
:1067B000AC42F6D3FFF728FD0888030028880300C1
:1067C000202A04DB203A21FA02F00021704721FA46
:1067D00002F3D040C2F120029140084319467047AD
:1067E0003A2800D2303820F02002412A01D3A2F109
:1067F0003700884201D34FF0FF30704770B58C18D6
:1068000010F8015B15F0070301D110F8013B2A11C4
:1068100006D110F8012B03E010F8016B01F8016BB1
:106820005B1EF9D12B0705D40023521E0DD401F8AD
:10683000013BFAE710F8013BCB1A921C03E013F876
:10684000015B01F8015B521EF9D5A142D8D30020AB
:1068500070BD0000F3B5214E074681B04FF0FF3107
:10686000706910F019FEBDF80800152803D273886E
:1068700002AA394626E0002514240DE005EB850028
:1068800007EB80011548ADF8004073886A461C305C
:1068900003F078FD6D1CEDB2BDF80800B0FBF4F01C
:1068A000A842EBD8BDF808006A46B0FBF4F104FB3F
:1068B0001101B0FBF4F0ADF8001000EB800073881C
:1068C00007EB800105481C3003F05CFD00231A46ED
:1068D0001946706910F0AEFCFEBD0000882B002048
:1068E000F3B5244E074681B04FF0FF31706910F0C8
:1068F000D3FDBDF80810384600F089F8ADF808005F
:10690000152803D2738802AA394627E000251424EB
:106910000EE000BF05EB850007EB80011548ADF8E0
:10692000004073886A461C3003F02CFD6D1CEDB2EC
:10693000BDF80800B0FBF4F0A842EBD8BDF80800A1
:106940006A46B0FBF4F104FB1101B0FBF4F0ADF8C2
:10695000001000EB8000738807EB800105481C30B5
:1069600003F010FD00231A461946706910F062FC0E
:10697000FEBD0000882B0020F0B50346ADF5806D0C
:10698000002203207E267D276C464D1E2CE000BF92
:1069900013F800C0BCF17D0F04D0A0EB020E04F888
:1069A0000EC01FE003EB000C9CF801C0BCF15E0FB1
:1069B00002D0BCF15D0F0CD1401C80B2521C13F808
:1069C00000C092B2BCF15D0F03D0BCF15E0F05D0E8
:1069D00008E0A0EB020C04F80C7003E0A0EB020C42
:1069E00004F80C60401C80B2A842D1DB881A80B247
:1069F0000321421E03E0655C5D54491C89B291424B
:106A0000F9DB191801F8016C0DF5806DF0BDF0B5DA
:106A10000446ADF5806D002303207D266A464F1E97
:106A20000AE0255C7D2D0ED07E2D11D000EB030CED
:106A300002F80C50401C80B2B842F2DBC81880B299
:106A40000321431E12E0C5184FF05D0C565503E0BC
:106A5000C5184FF05E0C565515445B1C85F801C0F7
:106A60009BB2E7E7555C6554491C89B29942F9DB52
:106A70007E21221802F8011C0DF5806DF0BD00008A
:106A80002DE9F04700268AB0DFF85091B0464FF468
:106A9000807501243746069628460AF0E5FA38B193
:106AA000D9F80403204203D028460AF0D3FA26433B
:106AB0002D1D64007F1CADB2082FEDD34FF4BE74C2
:106AC00020460AF0D1FA48B120460AF0C3FA46F04F
:106AD000004606AA012100200AF0A8FA404D16F04F
:106AE000FF0F15D00127002437420DD009EB840198
:106AF000D1F81005D1F81015C0F3042055F8242062
:106B0000C1F3014102B190477F00641C082CEBD314
:106B1000002E5FDA4FF0FF30CDF8108054E02819D6
:106B200010F8507F90F9000027F0C008401C3BD0BF
:106B300007A9404609F04FFB10B34FEA97194046AA
:106B400004F01AF955F820701FB1B9F1030F03D002
:106B500006E0B9F1030F27D104A9404609F043FB31
:106B60004FF0A04101EB8800D0F8000706A9C0F360
:106B7000014A404609F02FFB18B1BAF1020F03D0C9
:106B800012E0BAF1030F0FD1B9F1030F08D1BAF136
:106B9000020F1DD0022140460AF019FA761CF6B207
:106BA00017B149464046B847641C042CB7D3002EA1
:106BB00010D06A46012100200AF038FA06990098A0
:106BC000884207D006900498002634460790A6E72E
:106BD0000321E0E70AB0BDE8F08700000060004054
:106BE000508F0020F0B502460020091F8BB24FF6EF
:106BF000FF7541F221060BE014788021070405EAB5
:106C0000400000D570400C4200D070404908F5D1DA
:106C1000521C5B1E9BB2EFD2F0BD000004460AF08E
:106C200007FD00BF0AF0EAFA0028FBD1204600F079
:106C300001F80000BFF34F8F05480168054A01F4D1
:106C4000E06111430160BFF34F8F00BFFDE700001B
:106C50000CED00E00400FA0530B500230CE000BFA5
:106C600001EB430411F81350647804EB0514A4F508
:106C70004C74C4545B1C9BB29342F1D330BD10B52D
:106C80000146262000F03CF8002800D0012010BD6D
:106C900010B501460F2000F033F8002800D0012085
:106CA00010BD38B504466946212000F029F80028B7
:106CB0000CD09DF8000000F0FE0121438DF800107B
:106CC000212000F033F9002800D0012038BD38B56C
:106CD00004466946242000F013F800280ED09DF8E1
:106CE000000000F0F70040EAC400C1B28DF80010C7
:106CF000242000F01BF9002800D0012038BD00003E
:106D0000014B01229B681847302C002038B50446FF
:106D100069462020FFF7F4FF00280ED09DF8000000
:106D200004F0070100F0F80001438DF80010202066
:106D300000F0FCF8002800D0012038BD38B504462A
:106D400069462120FFF7DCFF00280ED09DF80000E7
:106D500000F0F70040EAC400C1B28DF80010212015
:106D600000F0E4F8002800D0012038BD38B5044612
:106D700069462320FFF7C4FF00280ED09DF80000CD
:106D800000F0CF0040EA0410C1B28DF800102320BB
:106D900000F0CCF8002800D0012038BD10B57F28C5
:106DA00001D9002010BD0146332000F0BFF80028B3
:106DB000F8D0012010BD10B57F2801D9002010BDEA
:106DC0000146322000F0B2F80028F8D0012010BDB2
:106DD00038B5044669462520FFF792FF002808D001
:106DE00021468DF80040252000F0A0F8002800D0B2
:106DF000012038BD38B5044669463020FFF780FFD2
:106E000000280CD09DF8000000F0400121438DF8CF
:106E10000010302000F08AF8002800D0012038BD92
:106E200038B5044669463020FFF76AFF00280ED0C7
:106E30009DF8000000F03F0040EA8410C1B28DF8D8
:106E40000010302000F072F8002800D0012038BD7A
:106E50001CB5044669462020FFF752FF002816D0D3
:106E600001A92320FFF74CFF002810D09DF8001047
:106E700021480A0905D1027802F0F0020A438DF890
:106E800000202CB1012C18D0022C09D000201CBDF0
:106E90009DF80010017001F00F008DF800001AE05D
:106EA0009DF8000000F0F7008DF800009DF8040048
:106EB00000F0F70040F008000BE09DF8000000F043
:106EC000F70040F008008DF800009DF8040000F085
:106ED000F7008DF804009DF80010202000F026F83F
:106EE0000028D4D09DF80410232000F01FF80028BB
:106EF000CDD001201CBD0000302C002038B5044648
:106F000069462020FFF7FCFE00280ED09DF8000007
:106F100000F00F0040EA0410C1B28DF800102020EC
:106F200000F004F8002800D0012038BD13B5034B51
:106F3000012201A95B6898471CBD0000302C00208D
:106F40002DE9F74FFE4CB4B004F11806771E04F19A
:106F50000C01FC4DDFF8F0B304F123084FF0000AF8
:106F60004FF001091D9107287DD2DFE800F07C0475
:106F7000B0FDFC7CFB002A213598FFF7FFFA0028C2
:106F800072D0F2A1C01EFFF7DBFA00286DD003A873
:106F90003599FFF711FBEEA103A8FFF717FB014698
:106FA00023A8FFF709FB23A8FFF7F2FAC0B2A0F16C
:106FB0000A010229D8D20A2802D130208DF8960081
:106FC0002E2123A8FFF7DAFA00284CD0E0A10020F8
:106FD000FFF7FCFA01460DF19700FFF7EDFA23A841
:106FE000FFF7D6FAC0B20C283DD1D9A10020FFF797
:106FF000EDFA01461EA8FFF7DFFA1EA8FFF7C8FA50
:10700000C0B2A0F10A010229AED20A2802D1302072
:107010008DF882002E211EA8FFF7B0FA0028D4D0E8
:10702000CBA10020FFF7D2FA01460DF18300FFF754
:10703000C3FA1EA8FFF7ACFAC0B20C28D4D10C21B9
:1070400023A8FFF707FC0C211EA8FFF703FC042070
:1070500004F0D0FF84F8099023AB0C3493E80700C8
:1070600007C41EAB02E035E122E022E093E807000E
:1070700007C414F8190C012824D1642103A8FFF7D0
:1070800048FACDE90076CDF80880B2A2642103A8C1
:107090001D9B00F025FE03A8FFF77AFA82B20320B9
:1070A000CDE900A02868002303A9C46CA548A04727
:1070B00008E0052004F09EFF84F809A00521AEA099
:1070C000FFF7C8FB41F288300FF07AFBCCE1CDE945
:1070D0000076CDF80880AAA2642103A81D9B00F0C9
:1070E000FFFD052004F086FF84F809A02868816D63
:1070F0009448884703A8FFF74BFA82B2CDF8009076
:10710000CDF8049028684E460023C76C03A98D482B
:10711000B84700210322084604F0DEFF216BA06A75
:10712000401A01D4034600E04342874A0227343222
:1071300047F20511062B08DCD4F82CC0636AB3EBC8
:107140000C0300D55B42062B04DDDBF834C0BCF138
:10715000000F14D0002800DA40420628B6DAE36AAD
:10716000606A02E0DEE046E029E0C01A00D5404255
:107170000628ABDADBF83430012B09D074E10123A7
:107180004FF21000CBF8346008F0C0FB85A207E096
:1071900001234FF21000CBF834A008F0B7FB83A214
:1071A000642103A800F09CFD03A8FFF7F1F982B267
:1071B000CDE900672868002303A9C46C52E17D482B
:1071C00090F845000128D9D10D217BA0FFF742FBA3
:1071D0007D4879A20188032000EB01407BA10AF0E1
:1071E00075F9052004F006FF84F809A02868816D70
:1071F0005448884738E10A2AC0D335980A3A0168CA
:107200002B918088ADF8B00033208DF8AD00302090
:107210008DF8B2008DF8B30002EBD2703599C0F34F
:107220004F021EA80A31FFF717FD69A11EA8FFF73C
:1072300087F9062708B314212EA8FFF76AF906225A
:1072400064A12EA800F0F8FA2EA8CDE900702BABAF
:1072500062A2642102A800F043FD286802A9C26B63
:1072600038489047012231461D9804F035FF6248A6
:10727000402100680FF0D4FEF6E060A11EA8FFF7E1
:107280005FF9002826D014212EA8FFF742F99DF8B7
:107290007C00D022303800EB80009DF87D1002EB9E
:1072A00040000844C4B2601E2EAE1E284FF00602F5
:1072B00011D353A1304600F0BFFACDE900762BABD5
:1072C00046A2642102A800F00BFD286802A9C26B47
:1072D0001C489047C8E04CA1304600F0ADFACDE91B
:1072E00000762BAB3DA2642102A800F0F9FC2868CF
:1072F00002A9C26B134890474548134A44430423EC
:10730000143247F207114FF21000CBF8144008F086
:10731000FDFA4FF4FA600FF053FA192003F02EFB38
:1073200000F016F93BA13598FFF70AF930B10122B8
:1073300031461D9804F0D0FE14216DE094E0000069
:107340001C300020002C0020E02F0020412C4100A8
:107350002C0000004030312B2531312E3131732B80
:1073600025312E31732B2531312E3131732B2531BF
:107370002E31735E000000006E6F677073000000B6
:107380004030312B2531312E3131732B25312E31C7
:10739000732B2531312E3131732B25312E31732B47
:1073A000305E00004030322B315E00004030322B26
:1073B000305E0000D83900206770735F64617461CB
:1073C0005F6C6F7374000000D42E002025730000E2
:1073D000403041004030412B305E000041542B4D85
:1073E000324D434C4953454E443D25382E38732584
:1073F0003034582573000000942B002040304200A8
:107400004030422B315E00004030422B305E0000A5
:1074100080EE36003041000002A8FFF77AF8AFF2A4
:107420004C02142102A800F05BFC114890F84510B2
:1074300021B190F84500012809D015E002A8FFF716
:10744000A7F882B2CDF80090CDF8049006E002A82B
:10745000FFF79EF882B20320CDE900902868002350
:1074600002A9C46C0348A04737B00020BDE8F08FE4
:10747000D8390020002C002001F0D0B910B58AB016
:10748000044618220D496846FFF72AF80C48069072
:107490004FF4007007900B4808904FF480700990EB
:1074A0000323094A06A9684601F0E6F908B101F08C
:1074B00077F8064844600AB010BD0000E07A030087
:1074C0005831002058330020255F0300F02B0020A6
:1074D0000EF01ABD074910B58860074A0021074819
:1074E00001F0E8F8002803D0BDE8104001F058B8DA
:1074F00010BD0000F02B0020E9FE0200D87A030046
:1075000000EB4001C1EBC0104FF4FA7101EBC00079
:107510004900B0FBF1F1064810B50022006801F007
:10752000F5F8002803D0BDE8104001F039B810BDCF
:10753000D87A0300054810B5006801F03DF900282D
:1075400003D0BDE8104001F02BB810BDD87A03007D
:10755000BFF34F8F05480168054A01F4E06111430C
:107560000160BFF34F8F00BFFDE700000CED00E0AE
:107570000400FA05BFF34F8F05480168054A01F47E
:10758000E06111430160BFF34F8F00BFFDE70000D2
:107590000CED00E00400FA0570B54FF4807630463B
:1075A00008F064FF114CB50560B1304608F065FF86
:1075B0000120C5F80803607920B9012060712168B5
:1075C000002088474FF48276304608F04FFF0028AD
:1075D0000AD0304608F051FF0220C5F808032168A0
:1075E000BDE870400120084770BD0000202D00203C
:1075F0002DE9F041164E4FF4A07130460AF030F9F3
:107600000025EFF31184402080F31188D6F804752B
:10761000810030460AF024F910F036F8381A20F0CC
:107620007F46012E07D910F021F8022803D000264A
:1076300010F036F80543761EFAD225B105494FF011
:107640008050086040BFE0B280F31188BDE8F0814F
:107650000010014004ED00E02DE9FE434FF4827874
:1076600040460AF015F94C4F00254C4C012600B35A
:1076700040460AF015F994F82E0010B194F82F1036
:10768000D1B18DF80050616801912189ADF80810E1
:10769000E26832B1218B618362602181E56010B1C3
:1076A00002E0257400E03E6021686846884784F85F
:1076B0002F5094F82E0060B34FF4807738460AF0CC
:1076C000E7F830B338460AF0EBF8628B94F82D10E7
:1076D0008A420AD9A2EB010080B260832289A2EB20
:1076E0000000626802EB400005E007D1E06828B1C5
:1076F00084F82F6065830AF0B9F804E08A4202D169
:1077000084F82F60658340460AF0CAF82248001DBD
:1077100006604FF4887738460AF0BAF848B1384620
:107720000AF0BEF8257402208DF800002168684632
:1077300088474FF48A7738460AF0AAF828B13846C5
:107740000AF0AEF82574BDE8FE834FF000484FF410
:107750008C7967691DE000BFB7FA87F028FA00F15D
:1077600009EB80058F4328460AF092F888B1284635
:107770000AF096F8A5F58C75E8088DF8040045F335
:107780008000401C8DF800608DF805002168684677
:107790008847002FE0D1D6E700700040AC8F002072
:1077A00000F010BA70B50E46144900EB400001EB32
:1077B000C0051446E86A183520B101280FD0022808
:1077C00005D113E0284600F031FAA04201D200248E
:1077D00011E022463146284600F060FA0BE02846C8
:1077E00000F024FAA042F4D20446F2E731462846DB
:1077F00000F027FA0446204670BD000008970020DC
:10780000014902480EF036B9DC8F002000300040FC
:10781000074810B5006810F0A5F8012807D1054900
:107820000007086040BFBFF34F8FBFF36F8F10BDDD
:10783000602E002004ED00E02DE9F04116460F46D1
:107840000546002408E03B5D05A20321284600F020
:1078500047FA641CA4B2AD1CB442F4D3BDE8F08175
:107860002530325800000000F0B5B5480023021D55
:107870000178101D01254FF0805406290BD1167890
:10788000360708D10678C6F30316032E06D0042E59
:1078900004D0052E02D0062907D00EE0B4F82463E8
:1078A000A84FC6F304263E6002E01678360704D1DE
:1078B0000678C6F30316032E02D0062904D00FE083
:1078C000A24FA14E7E670EE01678360708D10678E3
:1078D000C6F30316032E06D0042E04D0052E02D0C4
:1078E000062907D00EE0D4F84462994FC6F3423619
:1078F0003E6002E01678360704D10678C6F3031618
:10790000032E02D0062906D011E0924E376827F0E8
:10791000807737600EE01678360708D10678C6F310
:107920000316032E06D0042E04D0052E02D00629FD
:107930000AD011E04FF08046C6F80C31C6F810317D
:10794000834E361F336002E01678360704D106787E
:10795000C6F30316032E02D0062905D00CE07C4F97
:10796000032664373E600AE01678360704D10678AD
:10797000C6F30316032E02D006290DD014E0764F6D
:1079800005263E60744E78363560734E0836336097
:107990003F263F1D3E6002E01678360704D1067888
:1079A000C6F30316052E02D0062957D062E06B4EAF
:1079B00036686B4F3E60694E361D36683F1D3E602F
:1079C000664E083636683F1D3E60644E0C3636689B
:1079D0003F1D3E60614E103636683F1D3E605F4E73
:1079E000143636683F1D3E605C4E183636685C4F74
:1079F00020373E60594E1C3636683F1D3E60574E5C
:107A0000203636683F1D3E60544E243636683F1D92
:107A10003E60524E283636683F1D3E604F4E2C3633
:107A200036683F1D3E604D4E303636684C4F40370D
:107A30003E604A4E343636683F1D3E60474E38360B
:107A400036683F1D3E60454E3C3636683F1D3E6001
:107A5000424E403636683F1D3E6002E016783607DB
:107A600008D10678C6F30316032E06D0042E04D0E0
:107A7000052E02D0062907D019E0D4F85812394A49
:107A800001F04F01116002E0117809070FD1007871
:107A9000C0F30310032803D0042801D0052806D121
:107AA00031480168C90702D06FF001010160D4F8C4
:107AB0003001062808D1D4F83401062804D12B4817
:107AC000016841F48061016022487438016841F422
:107AD00070010160BFF34F8FBFF36F8F4FF0102124
:107AE000D1F80002002803DBD1F80402002822DAD2
:107AF0001F4A15601F480468002CFCD01524C1F8EB
:107B000000420568002DFCD0C1F80442016800293C
:107B1000FCD0136001680029FCD0BFF34F8F0D48E3
:107B2000F0380168144A01F4E06111430160BFF3C9
:107B30004F8F00BFFDE7124910480860F0BD0000FC
:107B4000E00F00F0403501400DF0ADBA00C0074035
:107B50003C050040FCED00E010560040040400101D
:107B600020C50040E40E0040000400403C170040E7
:107B700004E5014000E401400400FA050090D00350
:107B8000682E00200148006800470000342D0020C6
:107B9000094882B0D0F804034FF0000110F0010F43
:107BA00007D006480160006800900548406802B0B0
:107BB000004702B070470000000001400001014092
:107BC0004C2D002010B5124C02202061606111A0E4
:107BD000A06104F17800E0614FF4007020620020A1
:107BE000A06260620BA1A164E06204F51E71E16411
:107BF0001021A065C4E91410E06509A1E01DFEF79D
:107C0000DBFC08A12046FEF7D7FC2020A07110BDA8
:107C1000089700205465726D696E616C0000000069
:107C20005254540053454747455200000269C16809
:107C30008A4203D88068401A104400E0501A401E5F
:107C400070472DE9F047C4681746894606464FF04D
:107C500000083069A04201D9051B02E0B168201A72
:107C60000D1AB0686D1E001BA84200D80546BD4223
:107C700000D33D4670682A4620444946FEF730FC52
:107C8000B0687F1B2C44A844A944A04200D1002422
:107C9000F460002FDDD14046BDE8F0872DE9F041CA
:107CA00004468846D4E90207C51BE16860681646A9
:107CB0000844B54206D94146FEF712FCB819E06007
:107CC000BDE8F0812A464146FEF70AFC761B08EB28
:107CD000050132466068FEF703FCE660F0E700004D
:107CE0000FB41CB50246002007AC00290BD0491E7A
:107CF000CDE90021054B6A462146069800F03AF886
:107D0000009A002111701CBC5DF814FBD7810200A1
:107D100000487047782E002002E008C8121F08C1F2
:107D2000002AFAD170477047002001E001C1121FFC
:107D3000002AFBD1704700000121202803DA81408E
:107D40000548014003E0402802DA2038814009B1AB
:107D50000120704700207047FC06FFBD082806D2AE
:107D600028B1012803D0042801D001207047002049
:107D7000704700002DE9FF4F8DB00F4605460026E5
:107D800006E025280BD0DDE90F1290476D1C761C0C
:107D900028780028F5D111B03046BDE8F08F0024D6
:107DA000A246A1460122EC4900E0044315F8013F38
:107DB000203B02FA03F00842F7D128782A2810D095
:107DC0006FF02F022878A0F13001092914D80AEBAE
:107DD0008A0102EB410144F0020400EB010A6D1C30
:107DE000F0E701CF5FEA000A03D544F40054CAF17A
:107DF000000A44F002046D1C28782E2817D115F8CB
:107E0000010F44F004042A280ED06FF02F022878C6
:107E1000A0F1300109290AD809EB890102EB4101DF
:107E200000EB01096D1CF2E757F8049B6D1C2878E4
:107E30006C280FD006DC4C2817D068280DD06A2893
:107E400014D104E0742810D07A280FD10DE044F446
:107E500000140AE044F4801401E044F4401469780A
:107E6000814202D104F580146D1C6D1C2A786E2AA3
:107E70001FD00CDC632A31D004DC002A8BD0582AB6
:107E800011D1A3E0642A68D0692A0CD165E0732A75
:107E90002ED004DC6F2A73D0702A04D19BE0752A9F
:107EA0006FD0782A6ED01046DDE90F129047761C0D
:107EB00050E1C4F30250022806D0032809D0042858
:107EC00001CF09D0066045E101CFF117C0E900619B
:107ED00040E101CF06803DE106703BE117F8040B5D
:107EE0008DF8000000208DF80100EB46012003E032
:107EF00057F804BB4FF0FF3061074FF0000102D488
:107F00000DE008F10101884649450FDA8045F8DBAC
:107F10001BF808100029F4D108E008F10101884697
:107F20008142FADB1BF808100029F6D1DDE90F23A6
:107F3000AAEB08008146214600F036F9304400EBF8
:107F4000080604E0DDE90F121BF8010B9047B8F1B9
:107F50000108F7D221464846F7E00A21C4F302534C
:107F60004FF0000B0891022B04D001CFC117032B57
:107F700009D00AE0FF1D27F00707F7E8020108E033
:107F800032E01FE020E000B2C117042B01D140B263
:107F9000C117031E71F1000307DA4FF0000CD0EB9C
:107FA0000C006CEB01012D2302E0230504D52B23EB
:107FB0008DF82430012303E0E30701D02023F7E705
:107FC000984658E00A2110E010210EE010204FF0F2
:107FD000000B08900CE010214FF0000B44F004045B
:107FE0004FF00809089103E008214FF0000B0891B9
:107FF000C4F30253022B04D001CF0021032B06D07F
:1080000006E0FF1D27F00707F7E8020103E080B252
:10801000042B00D1C0B24FF0000823072BD5702AE3
:1080200007D0DDF820C08CF0100C5CEA0B0C05D0FA
:108030000EE040238DF82430012308E050EA0103CC
:1080400006D030238DF824308DF825200223984661
:10805000DDF820C08CF0080C5CEA0B0C0BD150EA68
:10806000010301D1630706D530238DF824304FF08A
:108070000108A9F10109582A04D038A20B9208AAD4
:108080000A920BE03AA2F9E75B46089AFEF705FB75
:108090000B9B9B5C0A9A521E0A92137050EA0102D3
:1080A000F2D10A98ADEB000000F1200B600702D579
:1080B00024F4803401E04FF00109D94502DDA9EB39
:1080C0000B0000E0002000EB0B0141440890AAEBFC
:1080D000010AE00306D4DDE90F232146504600F0F3
:1080E00063F806444FF0000908E009A911F80900F7
:1080F000DDE90F12904709F10109761CC145F4DB57
:10810000E0030CD5DDE90F232146504600F04CF882
:10811000064404E0DDE90F1230209047761C0899F0
:10812000481E08900029F5DC08E00A980A990078B2
:10813000491C0A91DDE90F129047761CBBF1000142
:10814000ABF1010BF1DC21465046DDE90F2300F0D5
:1081500019F806446D1C1BE6092801003031323342
:108160003435363738396162636465660000000073
:10817000303132333435363738394142434445465D
:10818000000000002DE9F041044600251E46174678
:10819000880404D405E039462020B0476D1C641ED5
:1081A000F9D52846BDE8F0812DE9F04104460025C7
:1081B0001E469046C80301D5302700E020278804DA
:1081C00004D505E041463846B0476D1C641EF9D51C
:1081D0002846BDE8F0814A68002A06D00A68531C88
:1081E0000B6010704868401E4860704710B560B161
:1081F00059B102780B785208B2EB530F05D1062221
:10820000401C491CFEF7CBF908B1002010BD01202D
:1082100010BD800701D00020704701207047C3685F
:108220008B4206D811440069491E814201D80120C1
:10823000704700207047000070B5ACB0AC216846B4
:10824000FEF767F9012402208DF800008DF8024046
:1082500006208DF803001C480590ADF81040302032
:1082600022904FF4FA608DF87C4023908DF87D4089
:108270004FF4A07024908005D0F81005134E00092B
:1082800010F0010F4FF0000505D0002003F0B2FE02
:108290003471259506E0012003F0ACFE35714FF4F2
:1082A0007A6025900A48299008486946F43800F019
:1082B00077FE08B100F074F904480121F43800F0A9
:1082C0006CFE2CB070BD00008E2B00201C300020F6
:1082D0004D2C030010B5007850B1114803210088DF
:1082E00001EB00400FA109F0EDF80BF09DFD0FE050
:1082F00010A11248FEF724F928B911A10F48FEF782
:108300001FF900280AD00D480321B83800F012FFE9
:10831000002803D0BDE8104000F042B910BD0000B5
:10832000D42E0020457261736520626F6E647321E4
:108330000000000048545F7461670000E02F0020D7
:1083400068745F544147000070B58CB015460E4606
:1083500000236C46C3F10F01415CE1545B1C102B00
:10836000F8D30D2104F11000FEF7D3F80020C0F17E
:108370000F02315C2244401C11740328F7D3684675
:1083800046DF0020C0F10F01214491F8201029544C
:10839000401C0328F6D30CB070BD002002F0B8B822
:1083A0000149097901F0C8BBFC2C0020F8B501880F
:1083B0000026044621293ED027DC28484FF003023E
:1083C000274F0088274D02EB0040102925D01129A6
:1083D00039D125A109F076F8032003F00BFE7E7158
:1083E000287801282FD1A7F13C002E70006905F1F3
:1083F0003001012801D0002825D1CA6801B01848F1
:10840000BDE8F0400C213C3810473B291CD05629D0
:1084100019D18088132176DF19E017A109F052F8ED
:10842000022003F0E7FD01207871A18869801548DA
:1084300007F0A4FF0BE00096808869468FDF0028D4
:1084400001D000F0ADF8F8BD8088132176DF002858
:10845000F9D0BDE8F84000F0A3B80000D42E002009
:108460001C300020882B0020446973636F6E6E659A
:10847000637465642E000000436F6E6E65637465FF
:10848000642E00001C2F002070B50024064D06E06D
:108490006868012110F8340009F072FC641C287827
:1084A0008442F5D3002070BD582D0020F8B5154644
:1084B0000C460646052A01D20720F8BD09F05CFDEE
:1084C00018B909F021FD0028F7D1124900224E60A9
:1084D0000C708D60C1E90422C1E906220E4D0DE049
:1084E00006EBC4002968009181788DF801100078AE
:1084F0000A4A694609F096FC0028DED1641EE4B2FF
:10850000EED2BDE8F84004480021054A001D00F005
:10851000D1B80000582D0020787D030041C502002D
:1085200019B1020072B609F083F800BF08F066FEC8
:108530000028FBD1104C0121208801EB00400FA145
:1085400008F0C0FF10480068C00700D000BE2088B7
:10855000022101EB00400DA108F0B4FFBFF34F8FE3
:108560000948E43801680D4A01F4E06111430160F3
:10857000BFF34F8F00BFFDE7D42E0020466174612A
:108580006C206572726F7200F0ED00E053797374C5
:10859000656D207265736574000000000400FA05C3
:1085A0000EB500210091CDE901106A4644F20100A8
:1085B000FFF7B8FF0EBD10B58268C368934203D0C1
:1085C00003F06EF9002010BD052010BD29B112B1D5
:1085D000531E134203D0092070470E2070470160DC
:1085E000838000218160C1600846704710B58268B1
:1085F000C3689A1A83889A4203D803F05BF9002073
:1086000010BD042010BD000070B502280FD1094C28
:10861000032509A1208805EB004008F053FF07F06F
:10862000ADF9208810A105EB004008F04BFF0120B8
:1086300070BD0000D42E0020506F776572206D61F0
:108640006E6167656D656E742077616E74732074FA
:108650006F20726573657420746F20444655206DD9
:108660006F64652E00000000506F776572206D61A9
:108670006E6167656D656E7420616C6C6F776564A3
:1086800020746F20726573657420746F20444655A2
:10869000206D6F64652E000010B50CF029F8017B89
:1086A000002905D001688268BDE8104008461047DF
:1086B00010BD000038B5046800251AB110B1207B48
:1086C00020B901E0072038BD606808B1082038BD36
:1086D00000202060A060E06069B10120A26008492C
:1086E0000246009123464FF47A7106A00FF06EF90E
:1086F000606010B102E00020F0E70E25284638BD8A
:108700009986020020000000002070472DE9FC41FE
:10871000466815460F46044656B1207B002809D00E
:1087200030460FF0B5F9002804D00020BDE8FC81E8
:108730000820FBE7EFF30580256008B300250195CD
:1087400001AB3A460921304600950FF079F901282E
:108750002BD10EF09FFF024601AB0621304600955B
:108760000FF06EF9012820D1019800B311494FF0A4
:108770008050086040BFBFF34F8FBFF36F8F16E08C
:10878000022500233A460421304600950FF058F99F
:1087900001280AD10EF078FF02460023012130465D
:1087A00000950FF04DF9012801D00420BEE701200B
:1087B0002073BAE704ED00E07CB50446406800256C
:1087C00000280CD0EFF30581B9B1019501AB00226F
:1087D000082100950FF034F9012817D101E0082095
:1087E0007CBD0198A0B10C494FF08050086040BF9B
:1087F000BFF34F8FBFF36F8F0AE002210023009178
:108800001A4603210FF01CF9012801D004207CBD79
:10881000257300207CBD000004ED00E0074810B582
:108820000178074A515C19B1001D0AF047F902E0CE
:108830000C3009F0D3FF002010BD0000E82D00200F
:10884000282D002070B50A4E01460A48B578FFF77A
:10885000B2FE04464DB10020B070711C0122C81D4B
:1088600007F080FF08B1FFF79BFE204670BD0000B7
:10887000E02D0020C4910020F0B5244E89B01F46A1
:108880000D00044672603FD0A888296882B2204853
:10889000FFF79CFE002835D1A889A96882B21C4840
:1088A0001030FFF793FE00282CD12022194968468A
:1088B000FDF716FE60690690207C00B101208DF85E
:1088C00014008DF81C70607C00B10E208DF815002E
:1088D000E0680290A06803902068019060680090B2
:1088E0000A480D4A6946083007F008FF002809D1F8
:1088F000B0702068401C05D004490122491CC81DE5
:1089000007F030FF09B0F0BD0720FBE7E02D0020A5
:10891000C4910020987F0300995F030010B50146C1
:108920001048FFF763FE040019D10F480F4A017881
:10893000515C19B1001D0AF0B3F802E00C3009F0E7
:108940003DFF60B9084907480839FFF734FE30B9E0
:10895000054901220839044807F014FF044620465F
:1089600010BD0000D4910020E82D0020282D00200B
:1089700030B5EFF3108172B60D4A9468012324B12B
:108980000370002900D162B630BD93604FF0E02340
:10899000D3F88051074C25401560C3F88041D3F8C7
:1089A000844154605A17C3F8842100220270E8E71A
:1089B0002C900020FC06FFBD0B498A68002A11D0CC
:1089C00000280FD1EFF3108072B60B684FF0E02251
:1089D000C2F800314B68C2F8043100228A600028D6
:1089E00000D162B6704700002C9000202DE9F041C4
:1089F000064608680C46411C4FF0A0474FF00105A1
:108A000006D005FA00F1C7F80815206808F0CBFA7F
:108A10006068411C02D0002108F0ABFA3168A069FF
:108A2000C1F82405607D227D31681043C1F86C05D2
:108A3000D4E900123068C0F81425C0F80C15207D68
:108A4000012815D1A068411C02D0002108F091FA3C
:108A5000E068411C05D08540C7F80855E06808F07B
:108A6000A2FAD4E902123068C0F80825C0F810153F
:108A7000BDE8F0812DE9F041064608680C46411C2E
:108A80004FF0A0474FF0010506D005FA00F1C7F8F6
:108A90000815206808F091FA6068411C02D0002196
:108AA00008F070FA3168A069C1F82405607D217D65
:108AB00032680843C2F86C05D4E900123068C0F887
:108AC0000C15C0F81425207D012815D1A068411C83
:108AD00002D0002108F056FAE068411C05D085401C
:108AE000C7F80855E06808F068FAD4E9021230685F
:108AF000C0F80825C0F81015BDE8F08104F078BB77
:108B00002DE9F047074600888EB0804603F0E6FF67
:108B1000824604462D4800252A460178404601F049
:108B200023F87879400734D501254FF6FF7603AB5B
:108B30002A46072150460AF0D9FB010004D04046DE
:108B40000CF070FA00252BE0B1463146049803F092
:108B500019FF064648450FD004460146404603F03B
:108B6000A7FF4046FFF71CFC30B940460CF02CFA3A
:108B70004046FFF715FC48B12246072150460AF04F
:108B80002BFC010003D040460CF04CFA00254E456A
:108B900006D040460AF08EFD10B1504603F08AFF21
:108BA00002208DF81800ADF81A807879400701D5B9
:108BB000012000E002208DF820008DF8215006A849
:108BC00002F016FC0EB0BDE8F0870000FC2C00207F
:108BD00070B5002586B001221B202C4600952B463F
:108BE0001146019508F050F94FF0A0414FF0006098
:108BF000C1F80C055E495F4809F076FA08B1FFF745
:108C0000CFFC5C4A03AB103207CA83E8070003A914
:108C1000002009F0E9F908B1FFF7C2FC002602A91B
:108C2000002009F0E9FABDF90800761CF6B2054407
:108C3000322EF4D33220B5FBF0F0ADF8080009F085
:108C40003BFB00231B20009401221946019408F0ED
:108C50001BF9BDF808004FF4E15110FB01F0C117FA
:108C600000EB9150C0F38F2041F26801884202D39B
:108C7000642006B070BDB0F57F6F06D30C21A0F55F
:108C80007F6090FBF1F05A300AE0B0F57A6F09D3BB
:108C9000A0F57A60C11700EB5170502101EBE000A4
:108CA000C0B2E6E740F65A71884206D30721A0F623
:108CB0005A7090FBF1F04630F2E740F61E718842A0
:108CC00006D30621A0F61E7090FBF1F03C30E7E7DA
:108CD00040F6EC61884206D30521A0F6EC6090FBDB
:108CE000F1F03230DCE740F6CE620321904205D34A
:108CF000A0F6CE6090FBF1F02830D1E740F6BA62E2
:108D0000904205D3A0F6BA6000EBD0701E211EE0A1
:108D100040F69262904208D3A0F69260C11700EB31
:108D20009170142101EBA000BAE740F67462904202
:108D300005D3A0F6746090FBF1F00F30B0E7B0F50A
:108D4000666F07D3A0F5666000EBD0700A2101EBD7
:108D50006000A5E740F6AC51884206D31221A0F688
:108D6000AC5090FBF1F0401D9AE7002081E7000035
:108D7000894C0300E47B030070B51500044609D05C
:108D80000020286034B1206820B1A079800703D08A
:108D9000072070BD0E2070BD084600F06DFEC0B209
:108DA000142804D02179814203D8042070BD052005
:108DB00070BDE288216800FB02102860002070BDB1
:108DC0002DE9FC47002517880646158090F82D00F0
:108DD0001446894630B13A462146484600F0EEFE38
:108DE000051E09D1B0784FF00C0A18B32088C84688
:108DF000001DB84202D95046BDE8FC87684679DFBD
:108E00000028F9D12088032108F8001020881921B2
:108E1000401C80B2208008F800102088401C80B2DE
:108E2000208000EB0801BDF800000DF043FA218816
:108E300008442080F0780222C8B1218896F90330D6
:108E400001F1030C4846BC45D5D8425421884FF067
:108E5000010C491C89B2218000F801C02188491CFD
:108E600089B2218009F801302088401C2080706878
:108E7000B8B1218890F9003001F1030C4846BC4597
:108E8000B9D8425421880A22491C89B2218042540F
:108E90002188491C89B2218009F801302088401CB2
:108EA0002080308950B1CDE900474B46062202218F
:108EB00006F108000DF0DCFA051E9DD1308A50B194
:108EC000CDE900474B460722032106F110000DF0C3
:108ED000CFFA051E90D1308B50B1CDE900474B46FB
:108EE0001522142106F118000DF0C2FA051E83D1D7
:108EF000306A30B13B462246494601F0A2FF051ECA
:108F0000DBD1706A30B13B462246494604F026FC6C
:108F1000051ED2D196F82C0038B13B462246494670
:108F200030460CF02DF9051EC7D1307838B13B46DC
:108F300022464946304606F041FD051EBDD1284671
:108F40005AE718B504460020ADF8000013466A46FB
:108F5000204600F006F8002802D0BDF800002044AA
:108F600018BD70B588B182B10024158803E0065D94
:108F7000641C3444A4B2A54203D8061976789E42F4
:108F800001D08C42F3D38C4201D3002070BDA11CD0
:108F90001180005D401E80B270BD80F830107047B7
:108FA0002DE9F0410D00044606D02CB195F87A0069
:108FB0000026012803D006E00E20BDE8F08195F8D8
:108FC0009800012829D0D5F8A000042825D0D5F88C
:108FD0009C00042821D04FF00108A6702C2205F136
:108FE0007801201DFDF77CFA84F83060D5F8A400E4
:108FF0006063D5F8A800A0634FF6FF70A4F8A8003E
:1090000004F19400C4F8A400C4F8AA60A4F8AE6007
:1090100084F8B060207810B104E00720CDE7FF208D
:1090200084F8540004F155011F27C4F89410A4F8E3
:10903000987004F198022846FFF7C2FE0028BCD1C0
:1090400015F13C0F0ED004F17401C4F89C10A4F883
:10905000A07004F1A00205F13C00FFF7B1FE00286A
:10906000ABD103E0C4F89C60A4F8A06084F8518000
:10907000208BA4F8480084F83C80266484F8506073
:1090800060696064454604F13C02002104F154002B
:1090900072DF002891D125708FE710B50288102A61
:1090A0001BD0112A20D0262A1DD1007A0C46012877
:1090B00001D0022817D1A0780521401CB0FBF1F2A5
:1090C00001FB1201204600F035F800280BD0A16BFF
:1090D000002908D0BDE810400847C27B012A02D110
:1090E0008088A1F8A80010BD0C46002184F8B210B9
:1090F0008088B4F8A8108842F5D120790028F2D1F0
:109100000121DFE710B50C46022801D0032810D159
:10911000607800280DD000206070A178204600F013
:1091200009F8002805D0A16B002902D0BDE8104045
:10913000084710BD2DE9F05F044600780F4638B1AE
:10914000A770002007F00EFD012620B1667007E130
:109150000820BDE8F09F0025C4F8AA50A4F8AE503E
:1091600084F8B050A07910B1A078012806D0E07939
:1091700068B1A078012801D0022808D1616B21B123
:1091800084F8B1600820884701E084F8B15004F108
:10919000AB0100200A5C0AB1304603E0401C0628FF
:1091A000F8D300204FF002084FF0030B012F06D038
:1091B000022F0CD0032F0FD0042F15D110E0A1796E
:1091C00029B194F8241011B908B130460DE0E179C5
:1091D00011B108B1404608E0207A08B1584604E0D1
:1091E000607A08B1042000E02846A070616B41B1AC
:1091F000032801D0042804D1607910B194F8B2009A
:10920000A0B184F8B35004F13C0018210746FDF7E3
:1092100080F904F12C0084F83C6081460AF076FB6A
:1092200058B194F82C0084F8510008E084F8B45048
:1092300084F8B36007208847E5E784F8516094F824
:10924000240050B148460AF061FB20B194F8280090
:1092500084F8520001E084F8526084F85050A278FB
:1092600004F1AA0104F194094FF0060A052A60D21C
:10927000DFE802F078030F223F0084F83160C4F881
:10928000A450C4E9101584F83C808020A4F848005C
:1092900051E084F8318094F82420384612B1072236
:1092A000027001E080F800B0228A8281C4F8A450E4
:1092B0004160E168B9603EE06069B860208BB881C8
:1092C00094F824003D4610B184F83CA001E084F8F5
:1092D0003C6020460DF0A8F840B185F814800421C8
:1092E000204602F00CFB20BB05211EE084F831B0C3
:1092F0001DE0E069B860208CB88194F824003D46F8
:1093000010B184F83CA001E084F83C6020460DF0E8
:109310008BF848B185F814800421204602F0EFFA5A
:1093200038B984F831A002E0042184F83110C4F87F
:10933000A490A07878B13A4604F15400D4F8A4106F
:1093400072DF00287FF405AF94F8301094F85400D1
:1093500073DF0028F6D1616B11B194F831008847B2
:109360000020F6E684F83150F5E700002DE9F34FD0
:109370009BB006463C216846FDF7CBF8306800906C
:1093800070680190307A8DF8080000248DF809404B
:10939000B6F8072006F10A00FC4D109005F1100008
:1093A00014902830DFF8E8830F9008F1180012902D
:1093B0000C3847F2081CDFF8D09311900127286978
:1093C000A2EB0C0109F1250B4FF0FF0A62457CD09E
:1093D0000ADC6FF4E2411144072977D2DFE801F09B
:1093E00076245887A6F8F70040F6F903A1F6F902AB
:1093F00099426CD011DC01296AD0092969D0192958
:1094000064D18DF80A40E349E148B27A09690079EC
:10941000FF2A7DD0002A7CD053E2012A7AD0022A8A
:1094200079D0032A52D1BAE002218DF80A1001281E
:1094300019D08DF82B4000BF99F83A00012816D0BA
:1094400010210DF11B00FDF764F82F216846FDF790
:10945000C9FB8DF82C00000A8DF82D007E208DF8B8
:109460002E002F213AE26C208DF82B00E4E70F2428
:109470008DF80B402246594603A8FDF731F8C24942
:109480008DF81B400F22153107A8FDF729F8DCE7FE
:10949000FFF79EFB8DF80A002869012802D08DF89D
:1094A0000BA008E099F83D0001281AD08DF80BA018
:1094B000686B012818D08DF80C4010216846FDF724
:1094C00091FB8DF80D00000A04E0BCE009E212E116
:1094D000D1E0EEE08DF80E007E208DF80F00102117
:1094E000FCE18DF80B40E3E78DF80CA0E5E70F22D7
:1094F000A9A10DF10A00FCF7F3FF0F22AAA10DF1BB
:109500001A00FCF7EDFF2D216846FDF76BFB03E029
:10951000E4E0E9E0C9E1E7E18DF82A00000A8DF80E
:109520002B007E208DF82C002D21D7E11C981E28C1
:1095300003D200BF8DF80A70C3E19FA2122115A8C3
:10954000109BFEF7CDFB594615A8FCF7F9FFE8B3D1
:10955000F07E00286FD0FF280CD1FFF739FB88F888
:109560000700296901290FD00A280FD25FF00500F2
:109570008DF80A00F07E03287ED004287DD00528CF
:109580007CD006287BD09CE10420F1E72F610123E9
:1095900047F201114FF21000149A06F0B7F98DF856
:1095A0000A400E216846FDF71DFB8DF80B00000AEE
:1095B0008DF80C007E208DF80D000E216846FDF719
:1095C0008FF94FF4FA600DF0FBF822E001E033E090
:1095D00029E00220CCE700BF06F098F98DF80A4098
:1095E0000E216846FDF7FEFA8DF80B00000A8DF893
:1095F0000C007E208DF80D000E216846FDF770F9F5
:1096000003F0AAFD4FF4FA600DF0DAF8192001F02A
:10961000B5F9FDF7AFFF012347F206110F9AAFE04E
:109620008DF80A404DE1654964480968096A884730
:1096300099F835003AE082E099F83D000128EFD032
:109640008DF80AA03DE11B2001F098F908B1FEF762
:10965000A7FF8DF80A400E216846FDF7C3FA8DF882
:109660000B00000A8DF80C007E208DF80D000E21F5
:109670006846FDF735F903E0A7E0AAE0B6E0B2E0FE
:109680002869012859D14CA2122114A8109BFEF779
:1096900027FB594614A8FCF753FF0028D0D0DDE97A
:1096A0001101012202F018FD4021F9E08DF80A00B5
:1096B00007E196F8220006F11601FF280BD00028DA
:1096C000AED198F80C0030B1DDE91101012200BFE4
:1096D00002F002FDA4E701221098F9E701283FF407
:1096E00029AFC0BB364804E00128F8D098BB49F642
:1096F00040408847E5E0B17A092944D00BDC234893
:109700000929806919D2DFE801F01A18355D686B04
:1097100074770500CAE70E291DD008DC0A297BD022
:109720000B297AD00C2979D00D2906D1B5E00F2963
:1097300011D010290FD0FF290ED0FE20B6E74FF22E
:109740001006304605F054FF2C61012347F2011149
:109750003046149A40E7B4E0FFF73AFA88F8070079
:109760002969012904D00A28BFF410AF05209DE71C
:1097700004209BE702202861149A012347F201117B
:109780004FF2100028E74CE0D8390020E02F0020ED
:109790001C300020B82B00204847544E42474E54FE
:1097A00030313033303032005330313031303034BA
:1097B000313930353231310025730000002C002062
:1097C000C0270900F07A012803D0AC6389F847402C
:1097D00021E7AF6389F847701DE795F8380065E722
:1097E000F07A012802D088F80B4019E788F80B704E
:1097F00016E798F80B0059E71C990F297FF420AF62
:10980000F17A88423FF496AE49B1AF610123384AFC
:1098100061464FF21000DFE62AE03AE015E0AC6165
:10982000F4E71C9812287FF485AED6F80B00686127
:109830003C2801D2022039E72D4A0423121F47F2A7
:1098400007114FF2100006F061F88DF80A400E2162
:109850006846FDF7C7F98DF80B00000A8DF80C007B
:109860007E208DF80D000E216846FDF739F8C9E617
:109870006869CDF80A0011216846FDF7B3F98DF843
:109880000E00000A8DF80F007E208DF810001121C7
:1098900024E001283FF403AFD2E60128FCD12021C7
:1098A000144800680DF0BCFBBAE6B07A401E7C2874
:1098B0009BD203F081FCB07AFDF77DFA03F06CFCDB
:1098C000AEE60E216846FDF78DF98DF80B00000A13
:1098D0008DF80C007E208DF80D000E216846FCF7F7
:1098E000FFFF1DB0BDE8F08F02F0EAFDDEE60000EC
:1098F000F82F0020942B00202DE9F04700250F467B
:1099000081464FF00108AA46244C254E38E02088B5
:1099100058B101280ED0022815D0811E07291ED863
:1099200019F805103154401C13E019F805007E2881
:1099300011D023E019F8050010B97070022008E07A
:109940007E2808D018E019F805001028F8D1B0706A
:109950000320208012E03070A4F800800EE00A2876
:109960000CD319F8051031547E2900F101000BD0F9
:1099700080B22080642801D3A4F800A06D1CADB291
:10998000BD42C4D3BDE8F08781B20548FCF7F4FFBF
:1099900001460348FFF7EAFCEEE70000102C002028
:1099A00058340020124D03269AB0288811A106EBE6
:1099B000004007F087FD154F4FF0FF386C466421DB
:1099C0006846FCF7A6FD4246694678680DF0EAFC59
:1099D0000128F4D128889DF8002006EB0040611C86
:1099E00007F01CFD9DF80010601CFFF785FFE6E7FF
:1099F000D42E0020626C655F636F6D6D5F7468725A
:109A00006561642073746172742E0000102C002054
:109A100070B5040012D001461C221448FCF760FD0A
:109A20001248134D0560206850B17ADF002806D136
:109A30002068016829604068686005E00E2070BDFC
:109A40000B487BDF0028FAD108484FF6FF71143825
:109A5000084A20F8041B0549343901600021FEF74B
:109A600029FE0028EBD0032070BD0000B88B002039
:109A7000BC2C0020C163030010B5044600F094F82C
:109A800008B1204610BD142010BD000010B50446DA
:109A900000F08AF8002805D02146BDE810400248B1
:109AA00006F0FDBA10BD0000E48B002070B515462D
:109AB0000E4604460CF0C4FC002809D0054800EB13
:109AC000840080692A463146BDE8704001F056BFE7
:109AD00070BD0000D48B002070B50546002400F056
:109AE00063F838B12946044806F0D9FA08B10224CF
:109AF00000E00124204670BDE08B002070B50546D3
:109B0000002400F051F838B12946044806F0C7FA9D
:109B100008B1022400E00124204670BDDC8B002047
:109B200010B51821034806F095FA182800D0C0B2E5
:109B300010BD0000D48B002070B505460C460846C9
:109B40000CF07EFC60B1284600F02EF840B10548CC
:109B5000294600EB8400BDE87040183006F09FBA3B
:109B6000002070BDD48B002070B5054614460E460B
:109B700008460CF065FC002812D0284600F014F8C6
:109B800000280DD00748294600EB860018301CB18C
:109B9000BDE8704006F08EBABDE8704006F03FBAEE
:109BA00070BD0000D48B0020142801D30020704722
:109BB0000146014806F073BAD88B00207CB50546F3
:109BC00008880C460930904201D90C207CBD6846BB
:109BD0006DDF0028FAD121880820685420881B21D5
:109BE000401C80B2208029542088401C80B22080F4
:109BF0002844DDF801100160BDF80510818020883F
:109C0000801D80B220809DF80010490800D00121FD
:109C100029542088401C208000207CBD10B506F00F
:109C200035FC002809D105484FF0030C00DF00285F
:109C300003D1BDE8104006F08DBC10BDC48E0020DD
:109C400018B103490860002070470E2070470000DB
:109C50001C2D002010B54FF0FF3100203DDF002803
:109C60000BD1B1213CDF002807D104484169012014
:109C70008847022007F0D4FD002010BDA88E0020E8
:109C8000044810B50068416900208847BDE81040CD
:109C9000FFF7E0BF1C2D002030B58FB005461C211A
:109CA00001A8FCF736FC0024142109A80894FCF74D
:109CB00030FC9DF82000009420F00F00401C20F0A4
:109CC000F00010308DF820009DF82100029420F063
:109CD0000F00401C20F0F00010308DF821009DF89E
:109CE0002200049420F00600801C8DF822009DF8CC
:109CF000040009AA40F028008DF8040008A8CDE966
:109D00000540079428788DF83A000320ADF8380014
:109D10009DF80000ADF82C4020F00F00401C20F012
:109D2000F00010308DF800009DF80100ADF82E40D5
:109D300020F00F00401C20F0F00010308DF80100E2
:109D40009DF802000D9420F00600801C20F0080011
:109D500040F011008DF802000EA809901720CDF8F0
:109D600028D0ADF830006888AB1D01A9AADF0FB07C
:109D700030BD000010B5164C86B01ECC8DE81E001C
:109D800020B3144C4FF6FF71A18000686061002081
:109D9000607620762046FFF753FF002814D101207B
:109DA0008DF812004FF65960ADF81000A21C04A9FE
:109DB0000120A8DF002807D12146684662DF00287D
:109DC00002D12046FFF768FF06B010BD0E20FBE76A
:109DD000287D0300A88E002010B500280FD0018830
:109DE000204C502926D00BDC10291DD0112906D17A
:109DF000A1888088814202D14FF6FF70A08010BDFB
:109E0000512913D05329FAD1C088E1888842F6D16C
:109E1000607E0028F3D0FFF733FF0028EFD06169A0
:109E2000BDE81040022008478088E7E7BDE8104001
:109E300009F01AB830F8061F62899142DFD14189D2
:109E40000229DCD10C3000F023FB074920760322E5
:109E50000988BDE8104002EB0143024603A1184601
:109E600007F034BBA88E0020D42E00205265636515
:109E70006976656420696E6469636174696F6E20D8
:109E80007374617465202564000000002DE9F041C1
:109E90000546007B042601272D4C012811D00228FD
:109EA0002CD00226287B314600F08AF818B12068B1
:109EB000416903208847206841690220BDE8F041DC
:109EC000084720684FF00008817E49B10621012033
:109ED00000F076F8002839D0206841690320EDE7CA
:109EE00047760121084600F06BF800282ED0226842
:109EF000112882F81980D5D10626D3E76A7B142A67
:109F000020D8FAB1DFF84C8005F10E0108F1040009
:109F1000FCF7E6FA697BC8F8181021684046897E8C
:109F20000029BFD1A0F10C010A68011F904758B168
:109F30000F28B7D108480949008807EB004007F00F
:109F4000C1FAAFE70526ADE720688776BDE8F08166
:109F50001C2D0020D08E0020D42E0020A8810300CC
:109F600070B5154900250A68002A24D04A68002ADD
:109F700021D00831904708281DD0104C00282068B7
:109F800085760ED00621022000F01AF818B120685C
:109F9000416903208847206841690220BDE870407C
:109FA00008470121022000F00BF8002803D02068A8
:109FB00041690320F2E770BDC48E00201C2D0020F3
:109FC00086B00323ADF8003020238DF814308DF8CF
:109FD000150000220E48019202928DF81610C188D9
:109FE000ADF8041002218DF8061005A90491ADF812
:109FF0000820CDF80CD0808801A9AEDF002804D15C
:10A00000BDF80010032900D00C2006B070470000F6
:10A01000A88E00200F4A0321128801EB024268B18A
:10A0200001280ED00B4A01210228128801EB0242BE
:10A030000AD0032810460AD007A109E0104610A153
:10A0400006E010461AA103E0104622A100E030A16C
:10A0500007F038BAD42E0020556E6B6E6F776E20E5
:10A060006576656E742066726F6D20626C655F64E4
:10A0700066755F627574746F6E6C6573732E000025
:10A0800044657669636520697320707265706172DA
:10A09000696E6720746F20656E74657220626F6FE1
:10A0A000746C6F61646572206D6F64652E000000D2
:10A0B0004465766963652077696C6C20656E7465AC
:10A0C0007220626F6F746C6F61646572206D6F6473
:10A0D000652E00005265717565737420746F20657C
:10A0E0006E74657220626F6F746C6F61646572204C
:10A0F0006D6F6465206661696C6564206173796E5B
:10A100006368726F6E656F75736C792E0000000066
:10A110005265717565737420746F2073656E642069
:10A120006120726573706F6E736520746F20636C4D
:10A1300069656E74206661696C65642E00000000BC
:10A14000054902884868102A04D0112A01D1401E0E
:10A1500048607047401CFBE7282C00202DE9F047A1
:10A1600001883B4E40F2F3194FF6FF7510291BD0C2
:10A1700011293ED0122954D0502946D1C188F289E4
:10A18000841D914241D1618902293ED186883046A1
:10A1900002F050FD050038D004F10C0000F07CF90D
:10A1A000A8B3294630464EE0C17B87880446012982
:10A1B0002BD1A846284602F03DFD050017D02F8080
:10A1C00000202872234843464A460168C5F80A1011
:10A1D0004068C5F80E0004F1100105F10A0002F014
:10A1E000F5FD6872F08900280FD129462AE0042085
:10A1F00013E0808802F01EFD040006D06068FEF7C0
:10A20000DBFA08B10AF0F2FE2580BDE8F087FFE72F
:10A210006868FEF7D1FA0028F7D0BDE8F0470AF0E9
:10A22000E5BE87880646384602F004FD0400ECD0FF
:10A230002B464A4606F1080104F10A0002F0C6FD69
:10A24000607221463846BDE8F04700F041BE00008C
:10A25000B88B0020BC2C00202DE9F04F07468588E4
:10A2600002883D48012197B08346102A09D0112A5F
:10A2700049D01A2A6CD1387AB1EB101F45D201228D
:10A2800044E0354C083CA068C0430B9061680BA8C3
:10A2900005F029FF0B990CA800F0B4FD2C220CA9A5
:10A2A0006846FCF71DF90026E946A04610E000BF0D
:10A2B00009EB46005FF00004B0F804A008EB84004E
:10A2C0005146001D05F0ABFE641C1D2CF6D3761C18
:10A2D0000098B042ECD8142D05D317B00420BDE887
:10A2E000F04FFEF75DB92946584605F0E3FE2946D2
:10A2F00008F1040005F0DEFEF87B012828D016489E
:10A300002946001D15E029461AE000220221B1EB82
:10A31000101F01D2012600E000260F49083901F183
:10A320001000041D294682B105F0C4FE36B129464D
:10A33000204617B0BDE8F04F05F0BCBE29462046C8
:10A3400017B0BDE8F04F05F06ABE05F068FEF5E70E
:10A3500017B0BDE8F08F0000DC8B002010B504467C
:10A360000748007800280AD0204602F091FA2046DB
:10A370000BF008F82046BDE8104001F095BC10BD78
:10A38000EC2C0020F0B585B016460F4604001D46A3
:10A3900014D004AA1946E068FEF7EEFC00280BD1A1
:10A3A000A5F57F40FF380BD0049848B1007848B13C
:10A3B0003088F42808D9072005B0F0BD0E20FBE74F
:10A3C0000520F9E70820F7E70020009001900290AF
:10A3D0000390A088ADF8000001208DF80200CDE9BF
:10A3E000026769462846AEDFE6E738B50D46040049
:10A3F00014D09DB12868206101208DF802004FF62D
:10A40000E070ADF80000A21C69460120A8DF00281A
:10A4100003D12946204601F071FD38BD0E2038BD1C
:10A4200070B588B00446002924D0002C22D00846FC
:10A430002188102920D0502924D057291AD1054627
:10A44000A188C06806AAFEF797FC002812D1069ED4
:10A45000307800280ED018216846FCF75AF8012001
:10A460008DF800000195A088ADF8080003962969D1
:10A470006846884708B070BD08B02146BDE8704006
:10A4800008F01ABC08B02146BDE8704008F024BDB1
:10A490000078C0F340007047007800F0010070477A
:10A4A0000149085C70470000F97A03000549095C1E
:10A4B0004FF0A040D0F81005C84010F0010000D0C7
:10A4C00001207047F97A03007CB50446C0074FF0BD
:10A4D00000050AD00D48012200230078009511469E
:10A4E000019506F0BFFC00F043F8A0070DD5074E1C
:10A4F0000024761C0022305D03230095114601954F
:10A5000006F0B0FC641C042CF4D37CBDF87A030084
:10A5100007490B5C4FF0A041D1F804250120984079
:10A5200020EA0203C1F808351040C1F80C05704755
:10A53000F87A03000249085C002106F060BD0000C3
:10A54000F87A03000249085C012106F058BD0000BA
:10A55000F87A03000549095C4FF0A040D0F80405E3
:10A56000C84010F0010000D001207047F87A0300C5
:10A570000020FFF7DFBF0020FFF7E4BF10B5024661
:10A58000064B4FF0FF3000215C5C944201D108463D
:10A5900010BD491C0429F7D310BD0000F97A03004F
:10A5A00070B50D4E0D004FF00004306005D0012055
:10A5B00000F07CF808B102202870706848B90B22BE
:10A5C0000121002000F0B8F908B1072800D10020CF
:10A5D0000446204670BD0000282C002010B5002045
:10A5E00000F002FB08B1062800D1002010BD10B514
:10A5F0001A220A21002000F09FF9012116220846A4
:10A6000000F09AF917220121022000F095F9182292
:10A610000121032000F090F919220021BDE810402B
:10A62000032000F089B900002DE9F0410D460746EE
:10A63000FFF7A4FF044604282FD22900184D19481B
:10A64000194E22D001290ED00A2926D104EB44004C
:10A6500028444478002C20D0B16800291DD0204621
:10A66000BDE8F041084704EB44016C5C294449789B
:10A670000029EFD00C4A4FF47A71D21C8068FEF7A3
:10A6800045F80028E6D1F770E4E78068FEF794F813
:10A6900004EB440028448478DCE7BDE8F081000046
:10A6A000FC340020007B03001C2C0020042801D275
:10A6B000FFF7FCBE002070472DE9FF5F614D4FF0B2
:10A6C000000A0146CDF800A028880326DFF86C9127
:10A6D000DFF86C815C4C4FF0805706EB0040162988
:10A6E00074D03DDC04296ED007296CD00A296AD0C9
:10A6F0000B2968D155A106F0E5FE062001F07AFC91
:10A700006088FFF7FBF9022826D0288854A106EBC1
:10A71000004006F0D7FE4948603050F8581F0191BC
:10A720008188ADF8081081798DF80A104089ADF85C
:10A730000B00454830300921C26801A89047DFF876
:10A740003CA1DAF80000FEF737F800224EF660214F
:10A75000DAF80000FDF7DAFF99F83100C8B120E01F
:10A76000172939D0DFF8D4B018290BF1F40B39D000
:10A77000192956D01A2926D13348303040698047EC
:10A7800028883FA106EB004006F09CFE6B460222A3
:10A7900009E0288840A106EB004006F093FE01F096
:10A7A00081FB6B4601224748E1680DF07FF90128E3
:10A7B00009D10098002806D0C8F8007040BFBFF348
:10A7C0004F8FBFF36F8FBDE8FF9FFFE73EA106F0FD
:10A7D00079FE6B460822E6E740A106F073FE6B4661
:10A7E0001022E0E742A106F06DFE002001F002FC1D
:10A7F00001218BF80410C9F820A099F8310030B974
:10A80000288840A106EB004006F05CFE06E0608868
:10A81000FFF774F90228D6D001F052FB01F042FB99
:10A82000D1E740A106F04EFE012001F0E3FB8BF8DA
:10A8300004A04FF47A61C9F82010E8E7282F00201F
:10A8400004ED00E0D42E0020882B00204253505FFE
:10A850004556454E545F57414B4555502E0000001C
:10A860006E6F20636F6E6E65637420616E6420632B
:10A8700068616E6765206E616D652E00D47A030095
:10A880004253505F4556454E545F4B45595F4C4FC0
:10A890004E47505553480000424C455F4144565F77
:10A8A00049444C452C20676F20746F20737461728B
:10A8B000742066617374206164766572746973696B
:10A8C0006E672E00896503004253505F4556454E22
:10A8D000545F4C4953494E54310000004253505F7D
:10A8E0004556454E545F4C4953494E54322E000054
:10A8F0004253505F4556454E545F55534256494E5C
:10A900002E000000616C776179732073746172743A
:10A910002066617374206164766572746973696E10
:10A92000672E00004253505F4556454E545F5553C5
:10A9300042564F55542E000070B50023042810D203
:10A940000D4D00EB4004012A02D101290CD0002258
:10A95000094E00EB4000304461B1012906D00A29BC
:10A9600006D00723184670BD0E30C2B22A55F9E74B
:10A970004270F7E78270F5E7FC340020044A014694
:10A9800000201279D20702D0084600F04DB8704777
:10A990001C2C002070B506461E480024C0E9016149
:10A9A000B0071FD50025012211462846FFF7C4FF36
:10A9B0006D1C0446042D02D2002CF4D012E08CB998
:10A9C000322204211448FDF771FD04000AD1FDF77D
:10A9D0005BFD040006D11048104A0021001FFDF75E
:10A9E00069FE0446F00712D00120FFF76DFD74B92F
:10A9F00009480B4A00210C38FDF75CFE040006D123
:10AA00000548084A01210838FDF754FE044620464F
:10AA100070BD00001C2C00200C7B0300B5AC0200B4
:10AA200091CE02009B8302002DE9F05F6B4C05463E
:10AA30000026607818B10020607002F01FFA684F9D
:10AA40004FF4E16B4FF4FA794FF47A784FF0010A42
:10AA50001D2D5DD2DFE805F0970F0F283A475DA363
:10AA6000646C646CA77474747474979A9A9EA7A7A4
:10AA7000A3AAAEBA5D000020FFF76CFD00284FF0DE
:10AA8000000008D0FFF756FD022D01D1584615E011
:10AA90004FF47A6012E0FFF755FD022D01D1C82076
:10AAA0000CE04FF4C87009E00020FFF753FD0028C8
:10AAB0006FD00020FFF73EFD4FF4487000EB4001DF
:10AAC000C1EBC011257009EBC1011AE00020FFF7AE
:10AAD00041FD00284FF0000002D0FFF72BFDD7E723
:10AAE000FFF730FDDDE70020FFF734FD00284FF0D1
:10AAF000000002D0FFF71EFD01E0FFF723FD3949FA
:10AB00002570B1FBF8F100223868FDF7FFFD06461D
:10AB100036E00020FFF7FCFC257006E025702FE0F2
:10AB200084F801A00020FFF7F3FC00226421EBE78A
:10AB300084F801A00020FFF7EBFC00224946E3E780
:10AB40007868FDF739FE0646D5F1110000D02EB128
:10AB50000020FFF7EFFC0020A07011E080B240F66B
:10AB60003541484309EB801191FBF8F100227868E8
:10AB7000FDF7CCFD06460020FFF7E4FC84F802A0B8
:10AB80003046BDE8F09F02F079F9C7E702F076F9A8
:10AB900005E017E002F072F90020FFF7D3FC002077
:10ABA000FFF7D0FCBAE7FFF7E6FCB7E70020FFF7B6
:10ABB000C1FCB3E70020FFF7CDFC18B10020FFF780
:10ABC000B9FC63E70020FFF7BDFC68E70020FFF752
:10ABD0009FFC00222570C82196E700001C2C002055
:10ABE000007B0300340F030001210BF0E5BF0000E0
:10ABF0002DE9F8430546861C00208DF8000090469C
:10AC00000F464FF001096846FDF7B2FE1B4C206865
:10AC10003860D4E90001401AA16804F21C47081A00
:10AC20000EE00121384605F058FA02F037FB0146E4
:10AC3000384605F052FAD4E90001401AA168081A12
:10AC4000401C8642EDD8B8F1000F03D0052065F313
:10AC5000891002E0062065F39F50A2682168114028
:10AC600004EB8101C8602068304420609DF800003A
:10AC7000FDF7A2FE4846BDE8F8830000E4920020FC
:10AC800030B482680468531C8360A154D0E9011277
:10AC90008A4202D330BC05F092BD30BC7047000040
:10ACA000034803C8814201D101207047002070474A
:10ACB000E492002000780A21FFF7B6BC10B5032803
:10ACC0000FD108480321008801EB004006A106F0DF
:10ACD000F9FB0F49A9200860BDE81040002006F0EC
:10ACE0009FBD10BDD42E00204E52465F5344485F96
:10ACF0004556545F53544154455F44495341424C77
:10AD0000454420746F20444655206D6F64652E00C5
:10AD10002005004005494FF0FF32082841F8202067
:10AD200002D3084480F8482070470000508F00206C
:10AD3000F0B54FF0FF3512B10023082601E00823DB
:10AD40000C260C4C05E000BF54F823707F1C04D087
:10AD50005B1CB342F8D32846F0BD26185DB286F8D6
:10AD6000305044F82310002AF5D1E11881F848004A
:10AD7000F1E70000508F00200249084490F93000AC
:10AD800070470000508F002070B504464FF6FF75E5
:10AD90000A462846AC4208D14FF48074214610463A
:10ADA00008F00CFFA04209D070BDFF2CFCD8214652
:10ADB000104608F0F6FE08B1204670BD284670BD6A
:10ADC00070B5084C050009D010342168002907D05F
:10ADD00008682060496828468847F6E70834F4E7A1
:10ADE00070BD0000EC8E0020054A012120B1012831
:10ADF00005D19170FFF7E4BF51700020FAE770476A
:10AE0000EC8E002073B58CB00646002000900D98A3
:10AE100080B100246D4621460DA805F040F930B1FF
:10AE2000009805EB400084800098401C0090641C52
:10AE3000142CF0D32C2269463046FBF751FB0EB0A0
:10AE400070BD2DE9F04117880646B81D14460D4621
:10AE5000984202D90C20BDE8F081318807220629EA
:10AE60000AD34FF4486C4FF6FF73614501D99942FC
:10AE700002D17088062801D21046ECE7604501D95E
:10AE80009842F9D1994203D0984201D08142F3D837
:10AE90000520E85520881221401C80B220802954CA
:10AEA0002088401C80B22080411930880BF002FAC3
:10AEB0002188084480B22080411970880BF0FAF98B
:10AEC0002188084420800020C5E7FDF769BB000009
:10AED00038B54A7A0F4B62B100220A7259690029CB
:10AEE00006D001228DF80020ADF8020068468847A0
:10AEF00038BD0A7A62B19B684C6802461946204602
:10AF0000FDF704FC0028F3D0BDE838400AF06EB825
:10AF10005B68F1E7B88B0020F0B585B016460F46A8
:10AF200004461D4614220B496846FBF7D9FA0A4825
:10AF30008DF80870ADF80240ADF80A608DF80C503D
:10AF4000017800222046FEF70FFE684600F050FA16
:10AF500005B0F0BDFC7C0300FC2C0020F0B587B0F0
:10AF6000074600200490ADF810100590ADF81210BF
:10AF70000190029001AA04A9384690DF060022D071
:10AF800006F062FE114C0346012520883A4605EB87
:10AF900000400F4906F0A1FABDF8042012B9BDF82F
:10AFA000060038B12088BDF8063005EB004009A145
:10AFB00006F093FABDF808202AB12088154905EB60
:10AFC000004006F083FA07B03046F0BD902E002016
:10AFD000048103005468652072657175657374653A
:10AFE000642054582F5258207061636B6574206C34
:10AFF000656E67746820697320746F6F206C6F6E64
:10B00000672062792025752F2575206F637465741C
:10B01000732E00005081030030B5044685B0002136
:10B020001B4808F0BEFD00282FD00025204601F067
:10B030005EFB68B1112812D086281BD0A0F54051C4
:10B04000023903D00146204609F0D8FF294607E01F
:10B0500005B029462046BDE8304002F0FDB8012188
:10B06000204602F0F9F805B00021BDE8304008485C
:10B0700008F0CBBD142207496846FBF731FAADF85A
:10B080000240684600F090F9E0E705B030BD0000EE
:10B09000C52C0020247C03007FB50C4610B1012094
:10B0A00004B070BD2079002638B141F61D55012845
:10B0B0001BD0022826D00F20F2E702202071029632
:10B0C0000396E0680190694601A809F0AFFC50B111
:10B0D00002988188E18000882081BDF800100298E4
:10B0E00009F022FDDCE70A20DAE70A4B6A46002174
:10B0F000A01D09F057FC38B1064918398E61CE61A0
:10B100000A28CDD12846CBE702488188019809F06A
:10B110000BFDF5E7A42D00202DE9F0470025DFF811
:10B120008C803CE06068002100EBC506012032788D
:10B130009146FBF7C1F9D4E9062300EA020701EAC8
:10B14000030C57EA0C0728D082438B434846C4E9D6
:10B15000062306F0CFFE3278824691460120002178
:10B16000FBF7AAF9D4E9042300EA020401EA030781
:10B170004A4650460021FBF79FF944404F403C436C
:10B180000BD17078012801D0012100E00021726804
:10B1900081EA0A010AB1484690476D1CEDB298F861
:10B1A000000044468542BDD3BDE8F087582D0020FD
:10B1B00010B50021024804F0ABFF80F3100010BD71
:10B1C0000097002009490120096809B10020704753
:10B1D0000749CA69002AF9D1044A283212688968E5
:10B1E000491E8A42F3D1022070470000203B002014
:10B1F000642C002013460A460021FFF78DBE000094
:10B200002DE9F843104D0F4680461E46914669468B
:10B21000286804F0D8FE040014D01C21FBF779F94B
:10B2200001202071C4F81490380BC4F80080C4E9E0
:10B2300002606946286804F0E7FE09F047FB002039
:10B24000BDE8F8830420FBE7087E030010B503780F
:10B250000022072B06D2DFE803F0050406102029A0
:10B2600030000A7010BD01230B7003898B81838825
:10B27000CB81C06888600A7410BD02220A700289FE
:10B280008A818288CA81C2688A60807D062802D04D
:10B290000020087410BD0120FBE703220A70C28859
:10B2A0008A810289CA81C068886010BD04230B703E
:10B2B000C0888881CA818A6010BD0520087010BDD1
:10B2C00070B5064D0646002455F8241009B13046E5
:10B2D0008847641C042CF7D370BD00004490002004
:10B2E00030B50446006887B00D46806800281FD03E
:10B2F00018216846FBF70DF90195A06805902079A3
:10B3000010B1012810D107E001208DF8000020695C
:10B310000290E068039005E002208DF80000E068EC
:10B32000000302906069049020688168684688473D
:10B3300007B030BD70B586B015460C00064619D072
:10B34000112C17D0082C15D014216846FBF7E1F812
:10B35000ADF80260304601F0C1FBADF804000D2CE1
:10B360000AD0862C1CD007208DF800000294684675
:10B3700000F04CF806B070BD03208DF8000025B138
:10B380002878C00701D0012000E002208DF80800D5
:10B3900000208DF80C0041F20110ADF80A00E6E73C
:10B3A00006208DF80000E2E710B50446408801F061
:10B3B00095FBA080024801682046BDE81040084780
:10B3C000CC2C00202DE9F04107460024064E074D05
:10B3D00005E000BF56F8241038468847641CE8781A
:10B3E0008442F7DBBDE8F0815C8E0020EC2C00206D
:10B3F00010B50446408801F071FBA0800248016846
:10B400002046BDE810400847D07C03000149096888
:10B4100008470000247D030070B586B0044614215F
:10B420006846FBF776F8A0890125A0F54040ADF805
:10B43000040020782A4E062833D2DFE800F03203D9
:10B4400003032C48A08900F03EFA30B9E08943F6A6
:10B45000FE71A0F54040884223D8A07B8DF80800FB
:10B46000207803280FD000208DF80900A0680390F1
:10B47000606850B109208DF800006068049068464B
:10B4800007F0F2FF0DE00120EEE708208DF8000044
:10B490008DF81050F3E7A08900F015FA08B1E089A3
:10B4A00030B17078002801D008F00EF906B070BDF8
:10B4B000606820B10B208DF800007570DFE70A206E
:10B4C0008DF80000BDF8040008F088F9F5E71320B6
:10B4D0008DF800004FF6FF70ADF80400CFE70000D4
:10B4E000DC2C002038B504460E480078A8B1A4F53D
:10B4F0007F40FF380FD0684609F01AF978B105216E
:10B50000017001210171C480684609F01FF909F03A
:10B51000CFF9002038BD042038BD022038BD0820F6
:10B5200038BD0000AC2D00200C4808B5007888B16B
:10B53000684609F0FDF878B106210170684609F007
:10B5400005F90748017809B10121017309F0B0F943
:10B55000002008BD022008BD082008BDAC2D002039
:10B5600008910020F0B587B014216846FAF7D1FFA2
:10B570002B4C207818B16846FFF7A2FE4EE0201D44
:10B5800004F0A8FDB8BB4FF0102041690004026927
:10B5900040694B1C01D100FB02F1224800220161ED
:10B5A000A1F54051C160204905F098FA002820D14A
:10B5B0001F481C238C221D49006804F0F1FC07F091
:10B5C00043FD051E14D0022812D000270126062DA7
:10B5D00012D005A809F0ACF888B106700C2D18D26D
:10B5E000DFE805F0170F170F1716171617111311AD
:10B5F0000B2007B0F0BD11E026706760BBE70820A4
:10B60000F7E7077105E0032100E00221017100E086
:10B61000067105A809F09AF809F04AF90020E8E750
:10B62000AC2D00207C2E0020187E030054900020BA
:10B63000807D030038B5040014D0694609F0F6F99E
:10B64000A0B1BDF8000000EB8001094800EB8100CB
:10B65000C16849B1A17A39B1C168491EC1600020F1
:10B66000A07238BD052038BD062038BD0A2038BD7F
:10B67000E090002038B504460D48007888B194B1B8
:10B68000684609F055F880B104210170002101716C
:10B690002168C160684609F059F809F009F90020ED
:10B6A00038BD022038BD052038BD082038BD000057
:10B6B000AC2D00201FB501A9684609F073F904B04C
:10B6C00010BD07B513460A466946002009F06AF91D
:10B6D0000EBD07B513460A460021684609F062F917
:10B6E0000EBD20B119B10068086000207047052028
:10B6F00070470000F8B50D46040018D0BDB169468A
:10B7000009F094F9A8B1BDF800000B4900EB8000E6
:10B7100001EB800001210C30666804F0DEFC2E6035
:10B7200060680C3068600120A0720020F8BD052020
:10B73000F8BD0A20F8BD0000E090002018B10323F6
:10B7400000220BF02BBB05207047022300220BF0D8
:10B7500025BB12B102230BF021BB0520704700006E
:10B76000084910B50A69042A0AD0074A096942F84B
:10B77000210004480121103004F0AFFC002010BD6E
:10B780000C2010BD8C2D00204490002038B50446BC
:10B7900009480D46007858B164B1694628460BF057
:10B7A000F7FB002803D1BDF800102180658038BD6B
:10B7B000022038BD052038BDAC2D002010B5044650
:10B7C0000E48007898B1A4B12188022913D80C4AF8
:10B7D00001EB810002EB800260885289C31C934216
:10B7E00009D80BF0C9FB00202080608010BD02202A
:10B7F00010BD052010BD042010BD0000AC2D0020A0
:10B80000E09000202DE9F84F044623480078D8B195
:10B81000ECB112212046FAF77CFE0320DFF87C9081
:10B820002080002504F1100804F10E0A05EB8501C3
:10B8300009EB810630897189084487B2706807F086
:10B840008DFB032805D007E00220BDE8F88F052016
:10B85000FBE72088401E20806088F16808446080F3
:10B860002089718908442081608938446081C7F546
:10B870008060A18980B2814200D2A0815346A21D7E
:10B88000211D2846CDF8008009F06AF96D1CADB283
:10B89000022DCBD30020D8E7AC2D0020E090002073
:10B8A000826883881A4003689A5C0A708168491C20
:10B8B00081607047C26883881A4003689954C168E0
:10B8C000491CC160704743F6FE71A0F540408842B4
:10B8D00001D8012070470020704710B50446007859
:10B8E000182802D1FEF71CF9207010BD10B50446CF
:10B8F0000078182802D1FEF713F9207010BD70B53A
:10B900000D460446B0F89810D0F894000122FDF7D7
:10B9100018FB00B1057004F13C0204F1940104F13C
:10B92000540072DF70BD000070B513460022064659
:10B930001546862902D0112902D002E0012200E03A
:10B9400001250D4C73B1A179FEF70EF92A466179F4
:10B950003046FEF709F90022A1783046FEF704F9D7
:10B96000002203E0A178FEF7FFF82A46617830460E
:10B97000BDE87040FEF7F8B8042D0020F7B5174673
:10B980000E0011D00098002560B1002421466846C1
:10B9900004F085FB18B1A0B23946B0476D1C641C99
:10B9A000142CF3D32846FEBD0020FEBD10B50028A0
:10B9B00021D0114B0022001F196803E0814203D8F7
:10B9C0000A4649680029F9D152B11368841A9C4289
:10B9D00004D1006818441060104602E0506000E096
:10B9E000186039B102680B1A934203D10B681A44EC
:10B9F00002604968416010BD702E0020406808F068
:10BA0000B7BE00000EB59DF8080020F00F00401CE6
:10BA100020F0F00010308DF808001348FAF7B8FD58
:10BA200082B2114902A87CDF08B1FCF7B9FD4FF4DE
:10BA3000007078DF08B1FCF7B3FD002000900190A2
:10BA40001021ADF80400ADF800104FF4C8704FF4A9
:10BA50000271ADF80600ADF8021068467ADF0028E2
:10BA600001D0FCF79DFD0EBDE02F00200B484A8859
:10BA700043889A4211D10A88A2F52063773B0CD102
:10BA80008988C91E8AB2828005480321134600882E
:10BA900001EB004003A105F020BD7047882B00207A
:10BAA000D42E002044617461206C656E206973207F
:10BAB00073657420746F2030782558282564290018
:10BAC00070B508B1012070BD1B4C0025207B08B16A
:10BAD000257301E000F0A4F8207808282AD2DFE8D6
